{
  "contractName": "SignatureNFT",
  "abi": [
    {
      "inputs": [],
      "stateMutability": "nonpayable",
      "type": "constructor"
    },
    {
      "anonymous": false,
      "inputs": [
        {
          "indexed": true,
          "internalType": "address",
          "name": "owner",
          "type": "address"
        },
        {
          "indexed": true,
          "internalType": "address",
          "name": "approved",
          "type": "address"
        },
        {
          "indexed": true,
          "internalType": "uint256",
          "name": "tokenId",
          "type": "uint256"
        }
      ],
      "name": "Approval",
      "type": "event"
    },
    {
      "anonymous": false,
      "inputs": [
        {
          "indexed": true,
          "internalType": "address",
          "name": "owner",
          "type": "address"
        },
        {
          "indexed": true,
          "internalType": "address",
          "name": "operator",
          "type": "address"
        },
        {
          "indexed": false,
          "internalType": "bool",
          "name": "approved",
          "type": "bool"
        }
      ],
      "name": "ApprovalForAll",
      "type": "event"
    },
    {
      "anonymous": false,
      "inputs": [
        {
          "indexed": true,
          "internalType": "address",
          "name": "from",
          "type": "address"
        },
        {
          "indexed": true,
          "internalType": "address",
          "name": "to",
          "type": "address"
        },
        {
          "indexed": true,
          "internalType": "uint256",
          "name": "tokenId",
          "type": "uint256"
        }
      ],
      "name": "Transfer",
      "type": "event"
    },
    {
      "inputs": [
        {
          "internalType": "address",
          "name": "to",
          "type": "address"
        },
        {
          "internalType": "uint256",
          "name": "tokenId",
          "type": "uint256"
        }
      ],
      "name": "approve",
      "outputs": [],
      "stateMutability": "nonpayable",
      "type": "function"
    },
    {
      "inputs": [
        {
          "internalType": "address",
          "name": "owner",
          "type": "address"
        }
      ],
      "name": "balanceOf",
      "outputs": [
        {
          "internalType": "uint256",
          "name": "",
          "type": "uint256"
        }
      ],
      "stateMutability": "view",
      "type": "function",
      "constant": true
    },
    {
      "inputs": [
        {
          "internalType": "uint256",
          "name": "tokenId",
          "type": "uint256"
        }
      ],
      "name": "getApproved",
      "outputs": [
        {
          "internalType": "address",
          "name": "",
          "type": "address"
        }
      ],
      "stateMutability": "view",
      "type": "function",
      "constant": true
    },
    {
      "inputs": [
        {
          "internalType": "address",
          "name": "owner",
          "type": "address"
        },
        {
          "internalType": "address",
          "name": "operator",
          "type": "address"
        }
      ],
      "name": "isApprovedForAll",
      "outputs": [
        {
          "internalType": "bool",
          "name": "",
          "type": "bool"
        }
      ],
      "stateMutability": "view",
      "type": "function",
      "constant": true
    },
    {
      "inputs": [],
      "name": "name",
      "outputs": [
        {
          "internalType": "string",
          "name": "",
          "type": "string"
        }
      ],
      "stateMutability": "view",
      "type": "function",
      "constant": true
    },
    {
      "inputs": [
        {
          "internalType": "uint256",
          "name": "tokenId",
          "type": "uint256"
        }
      ],
      "name": "ownerOf",
      "outputs": [
        {
          "internalType": "address",
          "name": "",
          "type": "address"
        }
      ],
      "stateMutability": "view",
      "type": "function",
      "constant": true
    },
    {
      "inputs": [
        {
          "internalType": "address",
          "name": "from",
          "type": "address"
        },
        {
          "internalType": "address",
          "name": "to",
          "type": "address"
        },
        {
          "internalType": "uint256",
          "name": "tokenId",
          "type": "uint256"
        }
      ],
      "name": "safeTransferFrom",
      "outputs": [],
      "stateMutability": "nonpayable",
      "type": "function"
    },
    {
      "inputs": [
        {
          "internalType": "address",
          "name": "from",
          "type": "address"
        },
        {
          "internalType": "address",
          "name": "to",
          "type": "address"
        },
        {
          "internalType": "uint256",
          "name": "tokenId",
          "type": "uint256"
        },
        {
          "internalType": "bytes",
          "name": "data",
          "type": "bytes"
        }
      ],
      "name": "safeTransferFrom",
      "outputs": [],
      "stateMutability": "nonpayable",
      "type": "function"
    },
    {
      "inputs": [
        {
          "internalType": "address",
          "name": "operator",
          "type": "address"
        },
        {
          "internalType": "bool",
          "name": "approved",
          "type": "bool"
        }
      ],
      "name": "setApprovalForAll",
      "outputs": [],
      "stateMutability": "nonpayable",
      "type": "function"
    },
    {
      "inputs": [
        {
          "internalType": "bytes4",
          "name": "interfaceId",
          "type": "bytes4"
        }
      ],
      "name": "supportsInterface",
      "outputs": [
        {
          "internalType": "bool",
          "name": "",
          "type": "bool"
        }
      ],
      "stateMutability": "view",
      "type": "function",
      "constant": true
    },
    {
      "inputs": [],
      "name": "symbol",
      "outputs": [
        {
          "internalType": "string",
          "name": "",
          "type": "string"
        }
      ],
      "stateMutability": "view",
      "type": "function",
      "constant": true
    },
    {
      "inputs": [
        {
          "internalType": "uint256",
          "name": "tokenId",
          "type": "uint256"
        }
      ],
      "name": "tokenURI",
      "outputs": [
        {
          "internalType": "string",
          "name": "",
          "type": "string"
        }
      ],
      "stateMutability": "view",
      "type": "function",
      "constant": true
    },
    {
      "inputs": [
        {
          "internalType": "address",
          "name": "from",
          "type": "address"
        },
        {
          "internalType": "address",
          "name": "to",
          "type": "address"
        },
        {
          "internalType": "uint256",
          "name": "tokenId",
          "type": "uint256"
        }
      ],
      "name": "transferFrom",
      "outputs": [],
      "stateMutability": "nonpayable",
      "type": "function"
    },
    {
      "inputs": [
        {
          "internalType": "string",
          "name": "email",
          "type": "string"
        },
        {
          "internalType": "string",
          "name": "name",
          "type": "string"
        }
      ],
      "name": "mintNFT",
      "outputs": [
        {
          "internalType": "uint256",
          "name": "",
          "type": "uint256"
        }
      ],
      "stateMutability": "nonpayable",
      "type": "function"
    },
    {
      "inputs": [
        {
          "internalType": "uint256",
          "name": "tokenId",
          "type": "uint256"
        },
        {
          "internalType": "string",
          "name": "content",
          "type": "string"
        }
      ],
      "name": "mintDocument",
      "outputs": [
        {
          "internalType": "uint256",
          "name": "",
          "type": "uint256"
        }
      ],
      "stateMutability": "nonpayable",
      "type": "function"
    },
    {
      "inputs": [
        {
          "internalType": "uint256",
          "name": "tokenId",
          "type": "uint256"
        }
      ],
      "name": "getSignature",
      "outputs": [
        {
          "components": [
            {
              "internalType": "string",
              "name": "email",
              "type": "string"
            },
            {
              "internalType": "string",
              "name": "name",
              "type": "string"
            },
            {
              "internalType": "uint256[]",
              "name": "documentIds",
              "type": "uint256[]"
            }
          ],
          "internalType": "struct SignatureNFT.Signature",
          "name": "",
          "type": "tuple"
        }
      ],
      "stateMutability": "view",
      "type": "function",
      "constant": true
    },
    {
      "inputs": [
        {
          "internalType": "uint256",
          "name": "documentId",
          "type": "uint256"
        }
      ],
      "name": "getDocument",
      "outputs": [
        {
          "components": [
            {
              "internalType": "string",
              "name": "content",
              "type": "string"
            }
          ],
          "internalType": "struct SignatureNFT.Document",
          "name": "",
          "type": "tuple"
        }
      ],
      "stateMutability": "view",
      "type": "function",
      "constant": true
    },
    {
      "inputs": [],
      "name": "totalSupply",
      "outputs": [
        {
          "internalType": "uint256",
          "name": "",
          "type": "uint256"
        }
      ],
      "stateMutability": "view",
      "type": "function",
      "constant": true
    },
    {
      "inputs": [
        {
          "internalType": "uint256",
          "name": "index",
          "type": "uint256"
        }
      ],
      "name": "tokenByIndex",
      "outputs": [
        {
          "internalType": "uint256",
          "name": "",
          "type": "uint256"
        }
      ],
      "stateMutability": "view",
      "type": "function",
      "constant": true
    }
  ],
  "bytecode": "0x60806040523480156200001157600080fd5b506040518060400160405280600c81526020017f5369676e61747572654e465400000000000000000000000000000000000000008152506040518060400160405280600381526020017f534947000000000000000000000000000000000000000000000000000000000081525081600090816200008f919062000324565b508060019081620000a1919062000324565b5050506200040b565b600081519050919050565b7f4e487b7100000000000000000000000000000000000000000000000000000000600052604160045260246000fd5b7f4e487b7100000000000000000000000000000000000000000000000000000000600052602260045260246000fd5b600060028204905060018216806200012c57607f821691505b602082108103620001425762000141620000e4565b5b50919050565b60008190508160005260206000209050919050565b60006020601f8301049050919050565b600082821b905092915050565b600060088302620001ac7fffffffffffffffffffffffffffffffffffffffffffffffffffffffffffffffff826200016d565b620001b886836200016d565b95508019841693508086168417925050509392505050565b6000819050919050565b6000819050919050565b600062000205620001ff620001f984620001d0565b620001da565b620001d0565b9050919050565b6000819050919050565b6200022183620001e4565b6200023962000230826200020c565b8484546200017a565b825550505050565b600090565b6200025062000241565b6200025d81848462000216565b505050565b5b8181101562000285576200027960008262000246565b60018101905062000263565b5050565b601f821115620002d4576200029e8162000148565b620002a9846200015d565b81016020851015620002b9578190505b620002d1620002c8856200015d565b83018262000262565b50505b505050565b600082821c905092915050565b6000620002f960001984600802620002d9565b1980831691505092915050565b6000620003148383620002e6565b9150826002028217905092915050565b6200032f82620000aa565b67ffffffffffffffff8111156200034b576200034a620000b5565b5b62000357825462000113565b6200036482828562000289565b600060209050601f8311600181146200039c576000841562000387578287015190505b62000393858262000306565b86555062000403565b601f198416620003ac8662000148565b60005b82811015620003d657848901518255600182019150602085019450602081019050620003af565b86831015620003f65784890151620003f2601f891682620002e6565b8355505b6001600288020188555050505b505050505050565b6135b6806200041b6000396000f3fe608060405234801561001057600080fd5b50600436106101215760003560e01c80634f6ccce7116100ad578063b88d4fde11610071578063b88d4fde14610340578063c87b56dd1461035c578063e96055441461038c578063e985e9c5146103bc578063f6ecee40146103ec57610121565b80634f6ccce7146102765780636352211e146102a657806370a08231146102d657806395d89b4114610306578063a22cb4651461032457610121565b8063095ea7b3116100f4578063095ea7b3146101d457806318160ddd146101f057806323b872dd1461020e5780633f9b250a1461022a57806342842e0e1461025a57610121565b806301ffc9a71461012657806302a569e61461015657806306fdde0314610186578063081812fc146101a4575b600080fd5b610140600480360381019061013b91906120ef565b61041c565b60405161014d9190612137565b60405180910390f35b610170600480360381019061016b9190612188565b6104fe565b60405161017d9190612361565b60405180910390f35b61018e6106ef565b60405161019b91906123cd565b60405180910390f35b6101be60048036038101906101b99190612188565b610781565b6040516101cb9190612430565b60405180910390f35b6101ee60048036038101906101e99190612477565b6107c7565b005b6101f86108de565b60405161020591906124c6565b60405180910390f35b610228600480360381019061022391906124e1565b6108ef565b005b610244600480360381019061023f9190612188565b61094f565b604051610251919061255e565b60405180910390f35b610274600480360381019061026f91906124e1565b610a0e565b005b610290600480360381019061028b9190612188565b610a2e565b60405161029d91906124c6565b60405180910390f35b6102c060048036038101906102bb9190612188565b610a94565b6040516102cd9190612430565b60405180910390f35b6102f060048036038101906102eb9190612580565b610b1a565b6040516102fd91906124c6565b60405180910390f35b61030e610bd1565b60405161031b91906123cd565b60405180910390f35b61033e600480360381019061033991906125d9565b610c63565b005b61035a6004803603810190610355919061274e565b610c79565b005b61037660048036038101906103719190612188565b610cdb565b60405161038391906123cd565b60405180910390f35b6103a660048036038101906103a19190612872565b610ded565b6040516103b391906124c6565b60405180910390f35b6103d660048036038101906103d191906128ea565b610f19565b6040516103e39190612137565b60405180910390f35b6104066004803603810190610401919061292a565b610fad565b60405161041391906124c6565b60405180910390f35b60007f80ac58cd000000000000000000000000000000000000000000000000000000007bffffffffffffffffffffffffffffffffffffffffffffffffffffffff1916827bffffffffffffffffffffffffffffffffffffffffffffffffffffffff191614806104e757507f5b5e139f000000000000000000000000000000000000000000000000000000007bffffffffffffffffffffffffffffffffffffffffffffffffffffffff1916827bffffffffffffffffffffffffffffffffffffffffffffffffffffffff1916145b806104f757506104f6826110a3565b5b9050919050565b610506611fe5565b61050f8261110d565b61054e576040517f08c379a0000000000000000000000000000000000000000000000000000000008152600401610545906129d2565b60405180910390fd5b6009600083815260200190815260200160002060405180606001604052908160008201805461057c90612a21565b80601f01602080910402602001604051908101604052809291908181526020018280546105a890612a21565b80156105f55780601f106105ca576101008083540402835291602001916105f5565b820191906000526020600020905b8154815290600101906020018083116105d857829003601f168201915b5050505050815260200160018201805461060e90612a21565b80601f016020809104026020016040519081016040528092919081815260200182805461063a90612a21565b80156106875780601f1061065c57610100808354040283529160200191610687565b820191906000526020600020905b81548152906001019060200180831161066a57829003601f168201915b50505050508152602001600282018054806020026020016040519081016040528092919081815260200182805480156106df57602002820191906000526020600020905b8154815260200190600101908083116106cb575b5050505050815250509050919050565b6060600080546106fe90612a21565b80601f016020809104026020016040519081016040528092919081815260200182805461072a90612a21565b80156107775780601f1061074c57610100808354040283529160200191610777565b820191906000526020600020905b81548152906001019060200180831161075a57829003601f168201915b5050505050905090565b600061078c8261114e565b6004600083815260200190815260200160002060009054906101000a900473ffffffffffffffffffffffffffffffffffffffff169050919050565b60006107d282610a94565b90508073ffffffffffffffffffffffffffffffffffffffff168373ffffffffffffffffffffffffffffffffffffffff1603610842576040517f08c379a000000000000000000000000000000000000000000000000000000000815260040161083990612ac4565b60405180910390fd5b8073ffffffffffffffffffffffffffffffffffffffff16610861611199565b73ffffffffffffffffffffffffffffffffffffffff161480610890575061088f8161088a611199565b610f19565b5b6108cf576040517f08c379a00000000000000000000000000000000000000000000000000000000081526004016108c690612b56565b60405180910390fd5b6108d983836111a1565b505050565b60006108ea600761125a565b905090565b6109006108fa611199565b8261126f565b61093f576040517f08c379a000000000000000000000000000000000000000000000000000000000815260040161093690612be8565b60405180910390fd5b61094a838383611304565b505050565b610957612006565b600a600083815260200190815260200160002060405180602001604052908160008201805461098590612a21565b80601f01602080910402602001604051908101604052809291908181526020018280546109b190612a21565b80156109fe5780601f106109d3576101008083540402835291602001916109fe565b820191906000526020600020905b8154815290600101906020018083116109e157829003601f168201915b5050505050815250509050919050565b610a2983838360405180602001604052806000815250610c79565b505050565b6000610a386108de565b8210610a79576040517f08c379a0000000000000000000000000000000000000000000000000000000008152600401610a7090612c54565b60405180910390fd5b610a8d8260076115fd90919063ffffffff16565b9050919050565b600080610aa083611617565b9050600073ffffffffffffffffffffffffffffffffffffffff168173ffffffffffffffffffffffffffffffffffffffff1603610b11576040517f08c379a0000000000000000000000000000000000000000000000000000000008152600401610b0890612cc0565b60405180910390fd5b80915050919050565b60008073ffffffffffffffffffffffffffffffffffffffff168273ffffffffffffffffffffffffffffffffffffffff1603610b8a576040517f08c379a0000000000000000000000000000000000000000000000000000000008152600401610b8190612d52565b60405180910390fd5b600360008373ffffffffffffffffffffffffffffffffffffffff1673ffffffffffffffffffffffffffffffffffffffff168152602001908152602001600020549050919050565b606060018054610be090612a21565b80601f0160208091040260200160405190810160405280929190818152602001828054610c0c90612a21565b8015610c595780601f10610c2e57610100808354040283529160200191610c59565b820191906000526020600020905b815481529060010190602001808311610c3c57829003601f168201915b5050505050905090565b610c75610c6e611199565b8383611654565b5050565b610c8a610c84611199565b8361126f565b610cc9576040517f08c379a0000000000000000000000000000000000000000000000000000000008152600401610cc090612be8565b60405180910390fd5b610cd5848484846117c0565b50505050565b6060610ce68261114e565b6000600660008481526020019081526020016000208054610d0690612a21565b80601f0160208091040260200160405190810160405280929190818152602001828054610d3290612a21565b8015610d7f5780601f10610d5457610100808354040283529160200191610d7f565b820191906000526020600020905b815481529060010190602001808311610d6257829003601f168201915b505050505090506000610d9061181c565b90506000815103610da5578192505050610de8565b600082511115610dda578082604051602001610dc2929190612dae565b60405160208183030381529060405292505050610de8565b610de384611833565b925050505b919050565b600080610dfa600761125a565b9050610e1081600761189b90919063ffffffff16565b50610e1b33826118b5565b610e46818585604051602001610e32929190612dae565b604051602081830303815290604052611ad2565b60006040518060600160405280868152602001858152602001600067ffffffffffffffff811115610e7a57610e79612623565b5b604051908082528060200260200182016040528015610ea85781602001602082028036833780820191505090505b50815250905080600960008481526020019081526020016000206000820151816000019081610ed79190612f7e565b506020820151816001019081610eed9190612f7e565b506040820151816002019080519060200190610f0a929190612019565b50905050819250505092915050565b6000600560008473ffffffffffffffffffffffffffffffffffffffff1673ffffffffffffffffffffffffffffffffffffffff16815260200190815260200160002060008373ffffffffffffffffffffffffffffffffffffffff1673ffffffffffffffffffffffffffffffffffffffff16815260200190815260200160002060009054906101000a900460ff16905092915050565b6000610fb88361110d565b610ff7576040517f08c379a0000000000000000000000000000000000000000000000000000000008152600401610fee906129d2565b60405180910390fd5b60006001600960008681526020019081526020016000206002018054905061101f919061307f565b905060096000858152602001908152602001600020600201819080600181540180825580915050600190039060005260206000200160009091909190915055604051806020016040528084815250600a600083815260200190815260200160002060008201518160000190816110959190612f7e565b509050508091505092915050565b60007f01ffc9a7000000000000000000000000000000000000000000000000000000007bffffffffffffffffffffffffffffffffffffffffffffffffffffffff1916827bffffffffffffffffffffffffffffffffffffffffffffffffffffffff1916149050919050565b60008073ffffffffffffffffffffffffffffffffffffffff1661112f83611617565b73ffffffffffffffffffffffffffffffffffffffff1614159050919050565b6111578161110d565b611196576040517f08c379a000000000000000000000000000000000000000000000000000000000815260040161118d90612cc0565b60405180910390fd5b50565b600033905090565b816004600083815260200190815260200160002060006101000a81548173ffffffffffffffffffffffffffffffffffffffff021916908373ffffffffffffffffffffffffffffffffffffffff160217905550808273ffffffffffffffffffffffffffffffffffffffff1661121483610a94565b73ffffffffffffffffffffffffffffffffffffffff167f8c5be1e5ebec7d5bd14f71427d1e84f3dd0314c0f7b2291e5b200ac8c7c3b92560405160405180910390a45050565b600061126882600001611b3f565b9050919050565b60008061127b83610a94565b90508073ffffffffffffffffffffffffffffffffffffffff168473ffffffffffffffffffffffffffffffffffffffff1614806112bd57506112bc8185610f19565b5b806112fb57508373ffffffffffffffffffffffffffffffffffffffff166112e384610781565b73ffffffffffffffffffffffffffffffffffffffff16145b91505092915050565b8273ffffffffffffffffffffffffffffffffffffffff1661132482610a94565b73ffffffffffffffffffffffffffffffffffffffff161461137a576040517f08c379a000000000000000000000000000000000000000000000000000000000815260040161137190613125565b60405180910390fd5b600073ffffffffffffffffffffffffffffffffffffffff168273ffffffffffffffffffffffffffffffffffffffff16036113e9576040517f08c379a00000000000000000000000000000000000000000000000000000000081526004016113e0906131b7565b60405180910390fd5b6113f68383836001611b50565b8273ffffffffffffffffffffffffffffffffffffffff1661141682610a94565b73ffffffffffffffffffffffffffffffffffffffff161461146c576040517f08c379a000000000000000000000000000000000000000000000000000000000815260040161146390613125565b60405180910390fd5b6004600082815260200190815260200160002060006101000a81549073ffffffffffffffffffffffffffffffffffffffff02191690556001600360008573ffffffffffffffffffffffffffffffffffffffff1673ffffffffffffffffffffffffffffffffffffffff168152602001908152602001600020600082825403925050819055506001600360008473ffffffffffffffffffffffffffffffffffffffff1673ffffffffffffffffffffffffffffffffffffffff16815260200190815260200160002060008282540192505081905550816002600083815260200190815260200160002060006101000a81548173ffffffffffffffffffffffffffffffffffffffff021916908373ffffffffffffffffffffffffffffffffffffffff160217905550808273ffffffffffffffffffffffffffffffffffffffff168473ffffffffffffffffffffffffffffffffffffffff167fddf252ad1be2c89b69c2b068fc378daa952ba7f163c4a11628f55a4df523b3ef60405160405180910390a46115f88383836001611b56565b505050565b600061160c8360000183611b5c565b60001c905092915050565b60006002600083815260200190815260200160002060009054906101000a900473ffffffffffffffffffffffffffffffffffffffff169050919050565b8173ffffffffffffffffffffffffffffffffffffffff168373ffffffffffffffffffffffffffffffffffffffff16036116c2576040517f08c379a00000000000000000000000000000000000000000000000000000000081526004016116b990613223565b60405180910390fd5b80600560008573ffffffffffffffffffffffffffffffffffffffff1673ffffffffffffffffffffffffffffffffffffffff16815260200190815260200160002060008473ffffffffffffffffffffffffffffffffffffffff1673ffffffffffffffffffffffffffffffffffffffff16815260200190815260200160002060006101000a81548160ff0219169083151502179055508173ffffffffffffffffffffffffffffffffffffffff168373ffffffffffffffffffffffffffffffffffffffff167f17307eab39ab6107e8899845ad3d59bd9653f200f220920489ca2b5937696c31836040516117b39190612137565b60405180910390a3505050565b6117cb848484611304565b6117d784848484611b87565b611816576040517f08c379a000000000000000000000000000000000000000000000000000000000815260040161180d906132b5565b60405180910390fd5b50505050565b606060405180602001604052806000815250905090565b606061183e8261114e565b600061184861181c565b905060008151116118685760405180602001604052806000815250611893565b8061187284611d0e565b604051602001611883929190612dae565b6040516020818303038152906040525b915050919050565b60006118ad836000018360001b611ddc565b905092915050565b600073ffffffffffffffffffffffffffffffffffffffff168273ffffffffffffffffffffffffffffffffffffffff1603611924576040517f08c379a000000000000000000000000000000000000000000000000000000000815260040161191b90613321565b60405180910390fd5b61192d8161110d565b1561196d576040517f08c379a00000000000000000000000000000000000000000000000000000000081526004016119649061338d565b60405180910390fd5b61197b600083836001611b50565b6119848161110d565b156119c4576040517f08c379a00000000000000000000000000000000000000000000000000000000081526004016119bb9061338d565b60405180910390fd5b6001600360008473ffffffffffffffffffffffffffffffffffffffff1673ffffffffffffffffffffffffffffffffffffffff16815260200190815260200160002060008282540192505081905550816002600083815260200190815260200160002060006101000a81548173ffffffffffffffffffffffffffffffffffffffff021916908373ffffffffffffffffffffffffffffffffffffffff160217905550808273ffffffffffffffffffffffffffffffffffffffff16600073ffffffffffffffffffffffffffffffffffffffff167fddf252ad1be2c89b69c2b068fc378daa952ba7f163c4a11628f55a4df523b3ef60405160405180910390a4611ace600083836001611b56565b5050565b611adb8261110d565b611b1a576040517f08c379a0000000000000000000000000000000000000000000000000000000008152600401611b119061341f565b60405180910390fd5b80600660008481526020019081526020016000209081611b3a9190612f7e565b505050565b600081600001805490509050919050565b50505050565b50505050565b6000826000018281548110611b7457611b7361343f565b5b9060005260206000200154905092915050565b6000611ba88473ffffffffffffffffffffffffffffffffffffffff16611e4c565b15611d01578373ffffffffffffffffffffffffffffffffffffffff1663150b7a02611bd1611199565b8786866040518563ffffffff1660e01b8152600401611bf394939291906134c3565b6020604051808303816000875af1925050508015611c2f57506040513d601f19601f82011682018060405250810190611c2c9190613524565b60015b611cb1573d8060008114611c5f576040519150601f19603f3d011682016040523d82523d6000602084013e611c64565b606091505b506000815103611ca9576040517f08c379a0000000000000000000000000000000000000000000000000000000008152600401611ca0906132b5565b60405180910390fd5b805181602001fd5b63150b7a0260e01b7bffffffffffffffffffffffffffffffffffffffffffffffffffffffff1916817bffffffffffffffffffffffffffffffffffffffffffffffffffffffff191614915050611d06565b600190505b949350505050565b606060006001611d1d84611e6f565b01905060008167ffffffffffffffff811115611d3c57611d3b612623565b5b6040519080825280601f01601f191660200182016040528015611d6e5781602001600182028036833780820191505090505b509050600082602001820190505b600115611dd1578080600190039150507f3031323334353637383961626364656600000000000000000000000000000000600a86061a8153600a8581611dc557611dc4613551565b5b04945060008503611d7c575b819350505050919050565b6000611de88383611fc2565b611e41578260000182908060018154018082558091505060019003906000526020600020016000909190919091505582600001805490508360010160008481526020019081526020016000208190555060019050611e46565b600090505b92915050565b6000808273ffffffffffffffffffffffffffffffffffffffff163b119050919050565b600080600090507a184f03e93ff9f4daa797ed6e38ed64bf6a1f0100000000000000008310611ecd577a184f03e93ff9f4daa797ed6e38ed64bf6a1f0100000000000000008381611ec357611ec2613551565b5b0492506040810190505b6d04ee2d6d415b85acef81000000008310611f0a576d04ee2d6d415b85acef81000000008381611f0057611eff613551565b5b0492506020810190505b662386f26fc100008310611f3957662386f26fc100008381611f2f57611f2e613551565b5b0492506010810190505b6305f5e1008310611f62576305f5e1008381611f5857611f57613551565b5b0492506008810190505b6127108310611f87576127108381611f7d57611f7c613551565b5b0492506004810190505b60648310611faa5760648381611fa057611f9f613551565b5b0492506002810190505b600a8310611fb9576001810190505b80915050919050565b600080836001016000848152602001908152602001600020541415905092915050565b60405180606001604052806060815260200160608152602001606081525090565b6040518060200160405280606081525090565b828054828255906000526020600020908101928215612055579160200282015b82811115612054578251825591602001919060010190612039565b5b5090506120629190612066565b5090565b5b8082111561207f576000816000905550600101612067565b5090565b6000604051905090565b600080fd5b600080fd5b60007fffffffff0000000000000000000000000000000000000000000000000000000082169050919050565b6120cc81612097565b81146120d757600080fd5b50565b6000813590506120e9816120c3565b92915050565b6000602082840312156121055761210461208d565b5b6000612113848285016120da565b91505092915050565b60008115159050919050565b6121318161211c565b82525050565b600060208201905061214c6000830184612128565b92915050565b6000819050919050565b61216581612152565b811461217057600080fd5b50565b6000813590506121828161215c565b92915050565b60006020828403121561219e5761219d61208d565b5b60006121ac84828501612173565b91505092915050565b600081519050919050565b600082825260208201905092915050565b60005b838110156121ef5780820151818401526020810190506121d4565b60008484015250505050565b6000601f19601f8301169050919050565b6000612217826121b5565b61222181856121c0565b93506122318185602086016121d1565b61223a816121fb565b840191505092915050565b600081519050919050565b600082825260208201905092915050565b6000819050602082019050919050565b61227a81612152565b82525050565b600061228c8383612271565b60208301905092915050565b6000602082019050919050565b60006122b082612245565b6122ba8185612250565b93506122c583612261565b8060005b838110156122f65781516122dd8882612280565b97506122e883612298565b9250506001810190506122c9565b5085935050505092915050565b60006060830160008301518482036000860152612320828261220c565b9150506020830151848203602086015261233a828261220c565b9150506040830151848203604086015261235482826122a5565b9150508091505092915050565b6000602082019050818103600083015261237b8184612303565b905092915050565b600082825260208201905092915050565b600061239f826121b5565b6123a98185612383565b93506123b98185602086016121d1565b6123c2816121fb565b840191505092915050565b600060208201905081810360008301526123e78184612394565b905092915050565b600073ffffffffffffffffffffffffffffffffffffffff82169050919050565b600061241a826123ef565b9050919050565b61242a8161240f565b82525050565b60006020820190506124456000830184612421565b92915050565b6124548161240f565b811461245f57600080fd5b50565b6000813590506124718161244b565b92915050565b6000806040838503121561248e5761248d61208d565b5b600061249c85828601612462565b92505060206124ad85828601612173565b9150509250929050565b6124c081612152565b82525050565b60006020820190506124db60008301846124b7565b92915050565b6000806000606084860312156124fa576124f961208d565b5b600061250886828701612462565b935050602061251986828701612462565b925050604061252a86828701612173565b9150509250925092565b60006020830160008301518482036000860152612551828261220c565b9150508091505092915050565b600060208201905081810360008301526125788184612534565b905092915050565b6000602082840312156125965761259561208d565b5b60006125a484828501612462565b91505092915050565b6125b68161211c565b81146125c157600080fd5b50565b6000813590506125d3816125ad565b92915050565b600080604083850312156125f0576125ef61208d565b5b60006125fe85828601612462565b925050602061260f858286016125c4565b9150509250929050565b600080fd5b600080fd5b7f4e487b7100000000000000000000000000000000000000000000000000000000600052604160045260246000fd5b61265b826121fb565b810181811067ffffffffffffffff8211171561267a57612679612623565b5b80604052505050565b600061268d612083565b90506126998282612652565b919050565b600067ffffffffffffffff8211156126b9576126b8612623565b5b6126c2826121fb565b9050602081019050919050565b82818337600083830152505050565b60006126f16126ec8461269e565b612683565b90508281526020810184848401111561270d5761270c61261e565b5b6127188482856126cf565b509392505050565b600082601f83011261273557612734612619565b5b81356127458482602086016126de565b91505092915050565b600080600080608085870312156127685761276761208d565b5b600061277687828801612462565b945050602061278787828801612462565b935050604061279887828801612173565b925050606085013567ffffffffffffffff8111156127b9576127b8612092565b5b6127c587828801612720565b91505092959194509250565b600067ffffffffffffffff8211156127ec576127eb612623565b5b6127f5826121fb565b9050602081019050919050565b6000612815612810846127d1565b612683565b9050828152602081018484840111156128315761283061261e565b5b61283c8482856126cf565b509392505050565b600082601f83011261285957612858612619565b5b8135612869848260208601612802565b91505092915050565b600080604083850312156128895761288861208d565b5b600083013567ffffffffffffffff8111156128a7576128a6612092565b5b6128b385828601612844565b925050602083013567ffffffffffffffff8111156128d4576128d3612092565b5b6128e085828601612844565b9150509250929050565b600080604083850312156129015761290061208d565b5b600061290f85828601612462565b925050602061292085828601612462565b9150509250929050565b600080604083850312156129415761294061208d565b5b600061294f85828601612173565b925050602083013567ffffffffffffffff8111156129705761296f612092565b5b61297c85828601612844565b9150509250929050565b7f546f6b656e20494420646f6573206e6f74206578697374000000000000000000600082015250565b60006129bc601783612383565b91506129c782612986565b602082019050919050565b600060208201905081810360008301526129eb816129af565b9050919050565b7f4e487b7100000000000000000000000000000000000000000000000000000000600052602260045260246000fd5b60006002820490506001821680612a3957607f821691505b602082108103612a4c57612a4b6129f2565b5b50919050565b7f4552433732313a20617070726f76616c20746f2063757272656e74206f776e6560008201527f7200000000000000000000000000000000000000000000000000000000000000602082015250565b6000612aae602183612383565b9150612ab982612a52565b604082019050919050565b60006020820190508181036000830152612add81612aa1565b9050919050565b7f4552433732313a20617070726f76652063616c6c6572206973206e6f7420746f60008201527f6b656e206f776e6572206f7220617070726f76656420666f7220616c6c000000602082015250565b6000612b40603d83612383565b9150612b4b82612ae4565b604082019050919050565b60006020820190508181036000830152612b6f81612b33565b9050919050565b7f4552433732313a2063616c6c6572206973206e6f7420746f6b656e206f776e6560008201527f72206f7220617070726f76656400000000000000000000000000000000000000602082015250565b6000612bd2602d83612383565b9150612bdd82612b76565b604082019050919050565b60006020820190508181036000830152612c0181612bc5565b9050919050565b7f496e646578206f7574206f6620626f756e647300000000000000000000000000600082015250565b6000612c3e601383612383565b9150612c4982612c08565b602082019050919050565b60006020820190508181036000830152612c6d81612c31565b9050919050565b7f4552433732313a20696e76616c696420746f6b656e2049440000000000000000600082015250565b6000612caa601883612383565b9150612cb582612c74565b602082019050919050565b60006020820190508181036000830152612cd981612c9d565b9050919050565b7f4552433732313a2061646472657373207a65726f206973206e6f74206120766160008201527f6c6964206f776e65720000000000000000000000000000000000000000000000602082015250565b6000612d3c602983612383565b9150612d4782612ce0565b604082019050919050565b60006020820190508181036000830152612d6b81612d2f565b9050919050565b600081905092915050565b6000612d88826121b5565b612d928185612d72565b9350612da28185602086016121d1565b80840191505092915050565b6000612dba8285612d7d565b9150612dc68284612d7d565b91508190509392505050565b60008190508160005260206000209050919050565b60006020601f8301049050919050565b600082821b905092915050565b600060088302612e347fffffffffffffffffffffffffffffffffffffffffffffffffffffffffffffffff82612df7565b612e3e8683612df7565b95508019841693508086168417925050509392505050565b6000819050919050565b6000612e7b612e76612e7184612152565b612e56565b612152565b9050919050565b6000819050919050565b612e9583612e60565b612ea9612ea182612e82565b848454612e04565b825550505050565b600090565b612ebe612eb1565b612ec9818484612e8c565b505050565b5b81811015612eed57612ee2600082612eb6565b600181019050612ecf565b5050565b601f821115612f3257612f0381612dd2565b612f0c84612de7565b81016020851015612f1b578190505b612f2f612f2785612de7565b830182612ece565b50505b505050565b600082821c905092915050565b6000612f5560001984600802612f37565b1980831691505092915050565b6000612f6e8383612f44565b9150826002028217905092915050565b612f87826121b5565b67ffffffffffffffff811115612fa057612f9f612623565b5b612faa8254612a21565b612fb5828285612ef1565b600060209050601f831160018114612fe85760008415612fd6578287015190505b612fe08582612f62565b865550613048565b601f198416612ff686612dd2565b60005b8281101561301e57848901518255600182019150602085019450602081019050612ff9565b8683101561303b5784890151613037601f891682612f44565b8355505b6001600288020188555050505b505050505050565b7f4e487b7100000000000000000000000000000000000000000000000000000000600052601160045260246000fd5b600061308a82612152565b915061309583612152565b92508282019050808211156130ad576130ac613050565b5b92915050565b7f4552433732313a207472616e736665722066726f6d20696e636f72726563742060008201527f6f776e6572000000000000000000000000000000000000000000000000000000602082015250565b600061310f602583612383565b915061311a826130b3565b604082019050919050565b6000602082019050818103600083015261313e81613102565b9050919050565b7f4552433732313a207472616e7366657220746f20746865207a65726f2061646460008201527f7265737300000000000000000000000000000000000000000000000000000000602082015250565b60006131a1602483612383565b91506131ac82613145565b604082019050919050565b600060208201905081810360008301526131d081613194565b9050919050565b7f4552433732313a20617070726f766520746f2063616c6c657200000000000000600082015250565b600061320d601983612383565b9150613218826131d7565b602082019050919050565b6000602082019050818103600083015261323c81613200565b9050919050565b7f4552433732313a207472616e7366657220746f206e6f6e20455243373231526560008201527f63656976657220696d706c656d656e7465720000000000000000000000000000602082015250565b600061329f603283612383565b91506132aa82613243565b604082019050919050565b600060208201905081810360008301526132ce81613292565b9050919050565b7f4552433732313a206d696e7420746f20746865207a65726f2061646472657373600082015250565b600061330b602083612383565b9150613316826132d5565b602082019050919050565b6000602082019050818103600083015261333a816132fe565b9050919050565b7f4552433732313a20746f6b656e20616c7265616479206d696e74656400000000600082015250565b6000613377601c83612383565b915061338282613341565b602082019050919050565b600060208201905081810360008301526133a68161336a565b9050919050565b7f45524337323155524953746f726167653a2055524920736574206f66206e6f6e60008201527f6578697374656e7420746f6b656e000000000000000000000000000000000000602082015250565b6000613409602e83612383565b9150613414826133ad565b604082019050919050565b60006020820190508181036000830152613438816133fc565b9050919050565b7f4e487b7100000000000000000000000000000000000000000000000000000000600052603260045260246000fd5b600081519050919050565b600082825260208201905092915050565b60006134958261346e565b61349f8185613479565b93506134af8185602086016121d1565b6134b8816121fb565b840191505092915050565b60006080820190506134d86000830187612421565b6134e56020830186612421565b6134f260408301856124b7565b8181036060830152613504818461348a565b905095945050505050565b60008151905061351e816120c3565b92915050565b60006020828403121561353a5761353961208d565b5b60006135488482850161350f565b91505092915050565b7f4e487b7100000000000000000000000000000000000000000000000000000000600052601260045260246000fdfea2646970667358221220d4e41e42384a2e9555fcf4fa8f369aa27bd43903857e71d81122733c0920947a64736f6c63430008130033",
  "immutableReferences": {},
  "source": "// SPDX-License-Identifier: MIT\npragma solidity ^0.8.0;\n\nimport \"@openzeppelin/contracts/token/ERC721/ERC721.sol\";\nimport \"@openzeppelin/contracts/utils/Counters.sol\";\nimport \"@openzeppelin/contracts/token/ERC721/extensions/ERC721URIStorage.sol\";\nimport \"@openzeppelin/contracts/utils/structs/EnumerableSet.sol\";\n\ncontract SignatureNFT is ERC721URIStorage {\n    using EnumerableSet for EnumerableSet.UintSet;\n    EnumerableSet.UintSet private _tokenIds;\n\n    struct Signature {\n        string email;\n        string name;\n        uint256[] documentIds;\n    }\n\n    struct Document {\n        string content;\n    }\n\n    mapping(uint256 => Signature) private _tokenSignatures;\n    mapping(uint256 => Document) private _documents;\n\n    constructor() ERC721(\"SignatureNFT\", \"SIG\") {}\n\n    function mintNFT(\n        string memory email,\n        string memory name\n    ) public returns (uint256) {\n        uint256 newTokenId = _tokenIds.length();\n        _tokenIds.add(newTokenId);\n        _mint(msg.sender, newTokenId);\n        _setTokenURI(newTokenId, string(abi.encodePacked(email, name)));\n        Signature memory newSignature = Signature(\n            email,\n            name,\n            new uint256[](0)\n        );\n        _tokenSignatures[newTokenId] = newSignature;\n        return newTokenId;\n    }\n\n    function mintDocument(\n        uint256 tokenId,\n        string memory content\n    ) public returns (uint256) {\n        require(_exists(tokenId), \"Token ID does not exist\");\n\n        uint256 newDocumentId = _tokenSignatures[tokenId].documentIds.length +\n            1;\n        _tokenSignatures[tokenId].documentIds.push(newDocumentId);\n        _documents[newDocumentId] = Document(content);\n        return newDocumentId;\n    }\n\n    function getSignature(\n        uint256 tokenId\n    ) public view returns (Signature memory) {\n        require(_exists(tokenId), \"Token ID does not exist\");\n        return _tokenSignatures[tokenId];\n    }\n\n    function getDocument(\n        uint256 documentId\n    ) public view returns (Document memory) {\n        return _documents[documentId];\n    }\n\n    function totalSupply() public view returns (uint256) {\n        return _tokenIds.length();\n    }\n\n    function tokenByIndex(uint256 index) public view returns (uint256) {\n        require(index < totalSupply(), \"Index out of bounds\");\n        return _tokenIds.at(index);\n    }\n}\n",
  "sourcePath": "/Users/priyankagupta/Documents/SuertyBonds/contracts/SignatureNFT.sol",
  "compiler": {
    "name": "solc",
    "version": "0.8.19+commit.7dd6d404.Emscripten.clang"
  },
  "schemaVersion": "3.4.13",
  "updatedAt": "2023-05-18T17:52:13.958Z",
  "networkType": "ethereum",
  "devdoc": {
    "events": {
      "Approval(address,address,uint256)": {
        "details": "Emitted when `owner` enables `approved` to manage the `tokenId` token."
      },
      "ApprovalForAll(address,address,bool)": {
        "details": "Emitted when `owner` enables or disables (`approved`) `operator` to manage all of its assets."
      },
      "Transfer(address,address,uint256)": {
        "details": "Emitted when `tokenId` token is transferred from `from` to `to`."
      }
    },
    "kind": "dev",
    "methods": {
      "approve(address,uint256)": {
        "details": "See {IERC721-approve}."
      },
      "balanceOf(address)": {
        "details": "See {IERC721-balanceOf}."
      },
      "getApproved(uint256)": {
        "details": "See {IERC721-getApproved}."
      },
      "isApprovedForAll(address,address)": {
        "details": "See {IERC721-isApprovedForAll}."
      },
      "name()": {
        "details": "See {IERC721Metadata-name}."
      },
      "ownerOf(uint256)": {
        "details": "See {IERC721-ownerOf}."
      },
      "safeTransferFrom(address,address,uint256)": {
        "details": "See {IERC721-safeTransferFrom}."
      },
      "safeTransferFrom(address,address,uint256,bytes)": {
        "details": "See {IERC721-safeTransferFrom}."
      },
      "setApprovalForAll(address,bool)": {
        "details": "See {IERC721-setApprovalForAll}."
      },
      "supportsInterface(bytes4)": {
        "details": "See {IERC165-supportsInterface}."
      },
      "symbol()": {
        "details": "See {IERC721Metadata-symbol}."
      },
      "tokenURI(uint256)": {
        "details": "See {IERC721Metadata-tokenURI}."
      },
      "transferFrom(address,address,uint256)": {
        "details": "See {IERC721-transferFrom}."
      }
    },
    "version": 1
  },
  "userdoc": {
    "kind": "user",
    "methods": {},
    "version": 1
  }
}